{
  "_format": "hh-sol-artifact-1",
  "contractName": "Lottery",
  "sourceName": "contracts/Lottery.sol",
  "abi": [
    {
      "inputs": [],
      "stateMutability": "nonpayable",
      "type": "constructor"
    },
    {
      "anonymous": false,
      "inputs": [
        {
          "indexed": true,
          "internalType": "address",
          "name": "participant",
          "type": "address"
        }
      ],
      "name": "Entered",
      "type": "event"
    },
    {
      "inputs": [],
      "name": "enter",
      "outputs": [],
      "stateMutability": "payable",
      "type": "function"
    },
    {
      "inputs": [],
      "name": "getBalance",
      "outputs": [
        {
          "internalType": "uint256",
          "name": "",
          "type": "uint256"
        }
      ],
      "stateMutability": "view",
      "type": "function"
    },
    {
      "inputs": [],
      "name": "getParticipants",
      "outputs": [
        {
          "internalType": "address[]",
          "name": "",
          "type": "address[]"
        }
      ],
      "stateMutability": "view",
      "type": "function"
    },
    {
      "inputs": [],
      "name": "getParticipantsCount",
      "outputs": [
        {
          "internalType": "uint256",
          "name": "",
          "type": "uint256"
        }
      ],
      "stateMutability": "view",
      "type": "function"
    },
    {
      "inputs": [],
      "name": "owner",
      "outputs": [
        {
          "internalType": "address",
          "name": "",
          "type": "address"
        }
      ],
      "stateMutability": "view",
      "type": "function"
    },
    {
      "inputs": [
        {
          "internalType": "uint256",
          "name": "",
          "type": "uint256"
        }
      ],
      "name": "participants",
      "outputs": [
        {
          "internalType": "address payable",
          "name": "",
          "type": "address"
        }
      ],
      "stateMutability": "view",
      "type": "function"
    },
    {
      "inputs": [],
      "name": "pickWinner",
      "outputs": [],
      "stateMutability": "nonpayable",
      "type": "function"
    }
  ],
  "bytecode": "0x608060405234801561001057600080fd5b50600180546001600160a01b031916331790556105b8806100326000396000f3fe6080604052600436106100705760003560e01c80635d495aea1161004e5780635d495aea146100f15780638da5cb5b14610108578063cabfaa1814610128578063e97dcb621461013d57600080fd5b806312065fe01461007557806335c1d349146100975780635aa68ac0146100cf575b600080fd5b34801561008157600080fd5b50475b6040519081526020015b60405180910390f35b3480156100a357600080fd5b506100b76100b23660046104a5565b610145565b6040516001600160a01b03909116815260200161008e565b3480156100db57600080fd5b506100e461016f565b60405161008e91906104be565b3480156100fd57600080fd5b5061010661023b565b005b34801561011457600080fd5b506001546100b7906001600160a01b031681565b34801561013457600080fd5b50600054610084565b6101066103b0565b6000818154811061015557600080fd5b6000918252602090912001546001600160a01b0316905081565b600080546060919067ffffffffffffffff81111561018f5761018f61050b565b6040519080825280602002602001820160405280156101b8578160200160208202803683370190505b50905060005b60005481101561023557600081815481106101db576101db610521565b9060005260206000200160009054906101000a90046001600160a01b031682828151811061020b5761020b610521565b6001600160a01b03909216602092830291909101909101528061022d81610537565b9150506101be565b50919050565b6001546001600160a01b0316331461029a5760405162461bcd60e51b815260206004820181905260248201527f4f6e6c7920746865206f776e65722063616e207069636b20612077696e6e657260448201526064015b60405180910390fd5b6000546102e95760405162461bcd60e51b815260206004820152601760248201527f4e6f207061727469636970616e747320656e74657265640000000000000000006044820152606401610291565b600080546103416001546000805460405160609390931b6bffffffffffffffffffffffff191660208401524260348401526054830152906074016040516020818303038152906040528051906020012060001c905090565b61034b9190610560565b90506000818154811061036057610360610521565b60009182526020822001546040516001600160a01b03909116914780156108fc02929091818181858888f193505050501580156103a1573d6000803e3d6000fd5b506103ad600080610473565b50565b34670de0b6b3a7640000146104075760405162461bcd60e51b815260206004820152601a60248201527f456e747279206665652069732065786163746c792031204554480000000000006044820152606401610291565b600080546001810182558180527f290decd9548b62a8d60345a988386fc84ba6bc95484008f6362f93160ef3e5630180546001600160a01b0319163390811790915560405190917f9d8f2d54c1a8ffb26973551e72794da9bd5b8529f24c494a6f1590d35d5e8ecf91a2565b50805460008255906000526020600020908101906103ad91905b808211156104a1576000815560010161048d565b5090565b6000602082840312156104b757600080fd5b5035919050565b6020808252825182820181905260009190848201906040850190845b818110156104ff5783516001600160a01b0316835292840192918401916001016104da565b50909695505050505050565b634e487b7160e01b600052604160045260246000fd5b634e487b7160e01b600052603260045260246000fd5b600060001982141561055957634e487b7160e01b600052601160045260246000fd5b5060010190565b60008261057d57634e487b7160e01b600052601260045260246000fd5b50069056fea26469706673582212205f33f0a17c3d7a497f51873726486083f46831638e391e1235866d4d63f45d0564736f6c63430008090033",
  "linkReferences": {},
  "deployedLinkReferences": {}
}