{
  "_format": "hh-sol-artifact-1",
  "contractName": "HelloWorld",
  "sourceName": "contracts/HelloWorld.sol",
  "abi": [
    {
      "inputs": [],
      "name": "getGreeting",
      "outputs": [
        {
          "internalType": "string",
          "name": "",
          "type": "string"
        }
      ],
      "stateMutability": "view",
      "type": "function"
    },
    {
      "inputs": [],
      "name": "greeting",
      "outputs": [
        {
          "internalType": "string",
          "name": "",
          "type": "string"
        }
      ],
      "stateMutability": "view",
      "type": "function"
    },
    {
      "inputs": [
        {
          "internalType": "string",
          "name": "_greeting",
          "type": "string"
        }
      ],
      "name": "setGreeting",
      "outputs": [],
      "stateMutability": "nonpayable",
      "type": "function"
    }
  ],
  "bytecode": "0x60c0604052600d60808190526c48656c6c6f2c20576f726c642160981b60a090815261002e9160009190610041565b5034801561003b57600080fd5b50610115565b82805461004d906100da565b90600052602060002090601f01602090048101928261006f57600085556100b5565b82601f1061008857805160ff19168380011785556100b5565b828001600101855582156100b5579182015b828111156100b557825182559160200191906001019061009a565b506100c19291506100c5565b5090565b5b808211156100c157600081556001016100c6565b600181811c908216806100ee57607f821691505b6020821081141561010f57634e487b7160e01b600052602260045260246000fd5b50919050565b6103de806101246000396000f3fe608060405234801561001057600080fd5b50600436106100415760003560e01c8063a413686214610046578063ef690cc01461005b578063fe50cc7214610079575b600080fd5b610059610054366004610267565b610081565b005b610063610098565b6040516100709190610318565b60405180910390f35b610063610126565b80516100949060009060208401906101b8565b5050565b600080546100a59061036d565b80601f01602080910402602001604051908101604052809291908181526020018280546100d19061036d565b801561011e5780601f106100f35761010080835404028352916020019161011e565b820191906000526020600020905b81548152906001019060200180831161010157829003601f168201915b505050505081565b6060600080546101359061036d565b80601f01602080910402602001604051908101604052809291908181526020018280546101619061036d565b80156101ae5780601f10610183576101008083540402835291602001916101ae565b820191906000526020600020905b81548152906001019060200180831161019157829003601f168201915b5050505050905090565b8280546101c49061036d565b90600052602060002090601f0160209004810192826101e6576000855561022c565b82601f106101ff57805160ff191683800117855561022c565b8280016001018555821561022c579182015b8281111561022c578251825591602001919060010190610211565b5061023892915061023c565b5090565b5b80821115610238576000815560010161023d565b634e487b7160e01b600052604160045260246000fd5b60006020828403121561027957600080fd5b813567ffffffffffffffff8082111561029157600080fd5b818401915084601f8301126102a557600080fd5b8135818111156102b7576102b7610251565b604051601f8201601f19908116603f011681019083821181831017156102df576102df610251565b816040528281528760208487010111156102f857600080fd5b826020860160208301376000928101602001929092525095945050505050565b600060208083528351808285015260005b8181101561034557858101830151858201604001528201610329565b81811115610357576000604083870101525b50601f01601f1916929092016040019392505050565b600181811c9082168061038157607f821691505b602082108114156103a257634e487b7160e01b600052602260045260246000fd5b5091905056fea264697066735822122035e5d0138d2c3926b4028a5f34b9fcaa5060713f3f4ff60734da39a1f45a3b8264736f6c63430008090033",
  "linkReferences": {},
  "deployedLinkReferences": {}
}